:04000000803184289F
:100008007E1480314E01961E0A280B2813288C1E58
:100018000E280F2813289031F820803182280B1FD2
:100028001628172882289A1C1A281B288228901C10
:100038001E281F28822850010C1493311423803164
:1000480042013608031929282A287F289E1C2D28B2
:100058002E282A2888312A2080313D304001BD00D1
:10006800CC30BC00CC30BB00CD30BA0042012F08E8
:100078004001C10042012E084001C00042012D0884
:100088004001BF0042012C084001BE009631CB263A
:100098008031031C50285128562801304201B400F1
:1000A8000030B500420134033504031D5C285D2887
:1000B80060289131AF21803100304101E300983050
:1000C800E40042012F084101E80042012E084101E5
:1000D800E70042012D084101E60042012C084101D8
:1000E800E50045309231AF2280314530913197217A
:1000F80080314201B6014E01901082287E1009001D
:10010800803186284101EA01EB01EC01ED01EE01A5
:10011800EF012030840001308500183091310A2128
:100128008031A030840001308500503091310A219F
:1001380080317E104001913165294101B300C6012B
:1001480040016B084101CA0040016A084101C90029
:10015800400169084101C800400168084101C70021
:100168004A084001BD00410149084001BC00410165
:1001780048084001BB00410147084001BA0000306F
:10018800C1000030C0000030BF000030BE00963112
:10019800CB2680310318D128D228E9284101C6018D
:1001A800C60A4A08F3004908F2004808F10047085F
:1001B800F00091315A21803173084101CA00720858
:1001C800C9007108C8007008C7004101CB01CC0103
:1001D800420131084101B700420130084101B6002F
:1001E80046080319F828F92809294608031DFD2897
:1001F800FE2803292B30AA000030AB0007292D3038
:10020800AA000030AB002A08C6004A08F3004908D3
:10021800F2004808F1004708F00096314C2680317A
:1002280070037104031D19291A294B294101460835
:1002380003191F2920292C2946084301A000FF3053
:100248004101B607FF30B73D0130CB000030CC008C
:100258000630F0009830F1004B08A03E9231312270
:100268008031FD304101B607FF30B73DA030400175
:10027800A400410137084001A600410136084001A9
:10028800A500410133089331B52380310F2F410177
:100298004A08F3004908F2004808F1004708F0004E
:1002A80096314C26803170087104031D5C295D2944
:1002B8008E29410146080319622963296F294608D6
:1002C8004301A000FF304101B607FF30B73D0130C0
:1002D800CB000030CC000A30F0009830F1004B0819
:1002E800A03E923131228031FD304101B607FF3006
:1002F800B73DA0304001A400410137084001A600E5
:10030800410136084001A500410133089331B52366
:1003180080310F2F3F304101D0008030CF000030B6
:10032800CE000030CD00B401B5014A08F3004908F9
:10033800F2004808F1004708F0000030F7000030EC
:10034800F6000030F5000030F40094316A24803162
:100358000318AF29B029EC2ABE2941013B08D00077
:100368003A08CF003908CE003808CD000130B4076C
:100378000030B53D41304001A3002030A2000030DC
:10038800A1000030A000410150084001A700410130
:100398004F084001A60041014E084001A500410157
:1003A8004D084001A4008D31C52580314001230846
:1003B8004101BB00400122084101BA004001210867
:1003C8004101B900400120084101B800380847023E
:1003D800A0003908483BA1003A08493BA2003B0865
:1003E8004A3BA3002308F3002208F2002108F10089
:1003F8002008F0009231CF228031F31B112A7308B4
:10040800031D122A7208031D122A7108031D122ADD
:1004180002307002031C112A122AB12941013B083B
:100428004001BD0041013A084001BC0041013908C2
:100438004001BB00410138084001BA0041014A08A7
:100448004001C100410149084001C000410148087C
:100458004001BF00410147084001BE009631CB264C
:100468008031031C382A392AB12941014D08470235
:10047800A0004E08483BA1004F08493BA200500885
:100488004A3BA3002308F3002208F2002108F100E8
:100498002008F0009231CF228031F31B622A7308C2
:1004A800031D612A7208031D612A7108031D612A50
:1004B800023070020318612A622AC52A41015008D5
:1004C800CA004F08C9004E08C8004D08C700EC2AEA
:1004D80041304001BD002030BC000030BB0000307E
:1004E800BA00410150084001C10041014F084001D4
:1004F800C00041014E084001BF0041014D084001C4
:10050800BE008A311322803140013D084101D000EC
:1005180040013C084101CF0040013B084101CE00A9
:1005280040013A084101CD00FF30B407FF30B53D26
:100538004D084702A0004E08483BA1004F08493B20
:10054800A20050084A3BA3002308F3002208F20047
:100558002108F1002008F0009231CF228031F31BEE
:10056800C42A7308031DC32A7208031DC32A71080D
:10057800031DC32A023070020318C32AC42AC52ADD
:10058800622A41014A084001BD0041014908400171
:10059800BC00410148084001BB0041014708400137
:1005A800BA00410150084001C10041014F08400113
:1005B800C00041014E084001BF0041014D08400103
:1005C800BE009631CB268031031CEB2AEC2A6C2A1C
:1005D80040016C084101AD002D08AE00EB1BF52A67
:1005E800F62AFB2A6B08A7006A08A600FF2A06302D
:1005F800A6000030A7002708B2002608B100013085
:10060800B1070030B23D66302E06031D0C2B0D2BB2
:10061800252BB51F102B112B1B2B3F30D000803002
:10062800CF000030CE000030CD00B401B5016730F6
:100638002D060319202B212B252B3408B10735084B
:10064800B23DBC01BD014A08C1004908C0004808C4
:10065800BF004708BE005008BB004F08BA004E084C
:10066800B9004D08B8000F2C410150084001BD00E9
:1006780041014F084001BC0041014E084001BB0048
:1006880041014D084001BA00410141084001C10043
:10069800410140084001C00041013F084001BF003E
:1006A80041013E084001BE008A31132280314001D9
:1006B8003D08D7003C08D6003B08D5003A08D400CE
:1006C800873110278031400157084101C50040019A
:1006D80056084101C400400155084101C3004001CA
:1006E80054084101C20045084001D10041014408B5
:1006F8004001D000410143084001CF0041014208B8
:100708004001CE009531DB25803140014F08410181
:10071800B00040014E084101AF0050084001A70059
:1007280041014F084001A60041014E084001A500C3
:1007380041014D084001A400410145084001A300C2
:10074800410144084001A200410143084001A100C1
:10075800410142084001A0008D31C525803140018A
:100768002308D1002208D0002108CF002008CE009D
:10077800410141084001D500410140084001D40031
:1007880041013F084001D30041013E084001D20029
:1007980092316F228031400151084101C10040016E
:1007A80050084101C00040014F084101BF0040010D
:1007B8004E084101BE0041304001BD002030BC0060
:1007C8000030BB000030BA00410150084001C100B0
:1007D80041014F084001C00041014E084001BF00DF
:1007E80041014D084001BE008A3113228031400189
:1007F8003D084101D00040013C084101CF004001C3
:100808003B084101CE0040013A084101CD000130CA
:10081800BC070030BD3D3D08803AA0003208803A50
:100828002002031D192C31083C02031C1C2C1D2C12
:10083800382B40304001A300A030A2000030A100B6
:100848000030A000410150084001A70041014F08B5
:100858004001A60041014E084001A50041014D0894
:100868004001A4008D31C525803140012308410194
:10087800C500400122084101C4004001210841018E
:10088800C300400120084101C20041084001BD00E9
:10089800410140084001BC0041013F084001BB0044
:1008A80041013E084001BA00410145084001C1002C
:1008B800410144084001C000410143084001BF0014
:1008C800410142084001BE009631CB268031031811
:1008D8006E2C6F2C792C00304101C5000030C4000B
:1008E8000030C3000030C2009E2C41014108F300D3
:1008F8004008F2003F08F1003E08F0004508F70004
:100908004408F6004308F5004208F40094316A24CC
:100918008031031C902C912C9E2C41012F18952C72
:10092800962C9E2C0030C5000030C4000030C30057
:100938000030C200410145084001BD0041014408A2
:100948004001BC00410143084001BB00410142088D
:100958004001BA0041014A084001C100410149086B
:100968004001C000410148084001BF00410147085B
:100978004001BE008B31BD23803140013D0841015B
:10098800C10040013C084101C00040013B08410151
:10099800BF0040013A084101BE0041084001BD00C6
:1009A800410140084001BC0041013F084001BB0033
:1009B80041013E084001BA004130A3002030A200A6
:1009C8000030A1000030A00041013B084001A70011
:1009D80041013A084001A600410139084001A5003B
:1009E800410138084001A4008D31C52580314001FE
:1009F8002308C1002208C0002108BF002008BE004B
:100A08009631CB268031031C0A2D0B2D462D013043
:100A18004101B4070030B53D41304001A30020300A
:100A2800A2000030A1000030A00041013B084001B5
:100A3800A70041013A084001A600410139084001D8
:100A4800A500410138084001A4008D31C525803139
:100A5800400123084101BB00400122084101BA00BE
:100A6800400121084101B900400120084101B800B6
:100A780066302E06031D412D422D462D0130B1074B
:100A88000030B23D41013B08D0003A08CF00390898
:100A9800CE003808CD003508A5003408A400AC0104
:100AA800A801A901BC01BD01A12E410150084001C6
:100AB800BD0041014F084001BC0041014E08400102
:100AC800BB0041014D084001BA0041014108400105
:100AD800C100410140084001C00041013F084001F8
:100AE800BF0041013E084001BE008A311322803117
:100AF80040013D08D7003C08D6003B08D5003A081D
:100B0800D400873110278031400157084101C500C2
:100B1800400156084101C400400155084101C30085
:100B2800400154084101C20045084001D10041017B
:100B380044084001D000410143084001CF00410171
:100B480042084001CE009531DB25803140014F0835
:100B5800803A4101A00080302002031DB62D0A30E2
:100B680040014E020318B92DBA2DD62D4101450872
:100B78004001D100410144084001D000410143082F
:100B88004001CF00410142084001CE009531DB25EC
:100B9800803140014F084101B00040014E08410139
:100BA800AF00DB2D09304101AF000030B0002C0848
:100BB800031DDF2DE02D092EA51FE32DE42D092EA1
:100BC8004B08A03E8600013087002E30810001309E
:100BD800CB070030CC3DFF30B607FF30B73DAC0146
:100BE800AC0A092E4B08A03E860001308700303041
:100BF80081000130CB070030CC3DFF30B607FF3015
:100C0800B73DFF30A807FF30A93D28082904031D78
:100C18000E2E0F2EF62D4B08A03E860001308700C1
:100C28002F08303E81000130CB070030CC3DFF302B
:100C3800B607FF30B73D50084001A70041014F08F3
:100C48004001A60041014E084001A50041014D08A0
:100C58004001A400410145084001A30041014408A6
:100C68004001A200410143084001A100410142089E
:100C78004001A0008D31C525803140012308D100F5
:100C88002208D0002108CF002008CE0041014108E9
:100C98004001D500410140084001D40041013F080E
:100CA8004001D30041013E084001D20092316F2239
:100CB8008031400151084101C10040015008410103
:100CC800C00040014F084101BF0040014E084101EA
:100CD800BE0041304001BD002030BC000030BB00E8
:100CE8000030BA00410150084001C10041014F08DD
:100CF8004001C00041014E084001BF0041014D08BC
:100D08004001BE008A311322803140013D08410173
:100D1800D00040013C084101CF0040013B0841019F
:100D2800CE0040013A084101CD00FF30A407FF3052
:100D3800A53D0130BC070030BD3D3D08803AA0000C
:100D48003208803A2002031DAB2E31083C020318FA
:100D5800AE2EAF2EBD2E41014C08803AA000803047
:100D68002002031DB92E4B304B02031CBC2EBD2E96
:100D7800592D4F304101BC000030BD003C08A03E59
:100D88008600013087008101A030F0004C08F20095
:100D98004B08F100A030A0004B0820023C07883126
:100DA8000320803141014B083C02CB004C083D3BFD
:100DB800CC004608031DE12EE32E0130E42E00305E
:100DC800A000A1012008BC002108BD0046080319A5
:100DD800EE2EEF2EFA2EFF30CB07FF30CC3D4B081E
:100DE800A03E860001308700460881003C08B60214
:100DF8003D08B73B4B08A03E4001A400410137081D
:100E08004001A600410136084001A5004101330810
:100E18009331B52380310800420123084001E700DF
:100E2800420122084001E600420121084001E50094
:100E3800420120084001E4005708E7005608E60090
:100E48005508E5005408E4006408D8006508D9008E
:100E58006608DA006708DB001730DB36DA0CD90CD5
:100E6800D80C890B312FFF305805DC0000305905AC
:100E7800DD005C08813EE200FF305D3DE300630871
:100E8800803AD80080305802031D4C2F1730620278
:100E9800031C4F2F502F512FFA2F4001E31B552FC2
:100EA800562FB32FFF30D800FF30D9007F30DA003B
:100EB8000030DB00620A642FDB37DA0CD90CD80C5F
:100EC800890B602F5B08E1005A08E0005908DF0031
:100ED8005808DE0064085E05D80065085F05D9007B
:100EE80066086005DA0067086105DB005B085A04DC
:100EF80059045804031D812F822F832F502F640813
:100F0800D8006508D9006608DA006708DB001F30DA
:100F1800DB36DA0CD90CD80C890B8C2F5B085A04F9
:100F2800590458040319992F9A2FA22F5E08E40731
:100F38005F08E53D6008E63D6108E73D5E09D800C9
:100F48005F09D9006009DA006109DB005808E40587
:100F58005908E5055A08E6055B08E705F22F640815
:100F6800D8006508D9006608DA006708DB001F307A
:100F7800DB36DA0CD90CD80C890BBC2F5B085A0469
:100F880059045804031DC92FCA2FD32F0030E70076
:100F98000030E6000030E5000030E400F22F64087D
:100FA800D8006508D9006608DA006708DB00013058
:100FB800D835D90DDA0DDB0D890BDC2F5B085A0407
:100FC800590458040319E92FEA2FF22FBF30E7001C
:100FD8008030E6000030E5000030E4006708D70004
:100FE8006608D6006508D5006408D4000800833078
:060FF80052018C0008000C
:10100600F5007008F7007508F6001D2877088600B9
:10101600013087000108F4000130F3007308F70778
:101026007608860001308700740881000130F300DD
:101036007308F6070130F1020030F23B710A031D16
:101046002828720A031D282829280928080005309F
:1010560091317021883171084201B3007008B200E5
:1010660045304001BD007F30BC00F030BB00003091
:10107600BA004130A3002030A2000030A1000030A9
:10108600A00042013208F0003308F100F201F3013A
:10109600003097315627883173084001A70072083F
:1010A600A6007108A5007008A4008D31C5258831F9
:1010B60040012308C1002208C0002108BF00200803
:1010C600BE008A311322883140013D084201AF003B
:1010D60040013C084201AE0040013B084201AD0020
:1010E60040013A084201AC002F084001A700420126
:1010F6002E084001A60042012D084001A50042012C
:101106002C084001A4004430A3007A30A20000302D
:10111600A1000030A0008D31C5258831400123088B
:10112600C1002208C0002108BF002008BE003F30D1
:10113600BD000030BC000030BB000030BA008B316F
:10114600BD23883140013D08D1003C08D0003B0852
:10115600CF003A08CE009531DB25883140014F0893
:10116600DA004E08D900DB01DC0140015B08283EAD
:101176008600013087000A30F0000030F1005A087E
:10118600F3005908F20093318123883170088100F9
:101196000A30F0000030F10040015A08F300590807
:1011A600F2009331EA23883171084001DA007008B1
:1011B600D9000130DB070030DC3D5C08803AD800FE
:1011C60080305802031DE92804305B02031CEC281A
:1011D600ED28B82808004101D90040016D088600B5
:1011E6008701403F4101D100413FD20051088400B0
:1011F600520885001200253A031D02290329F82901
:1012060040016D08860087010130810741310318CE
:10121600810A4201B001B101031000300318013008
:101226004101EE00FF30EA00FF30EB0040016D089F
:1012360086008701403F4101D100413FD20051085D
:1012460084005208850012002E3A031D2B292C29F2
:10125600402940016D088600870101308107413130
:101266000318810A6E08F6006D0895310F2588313E
:1012760077084101EB007608EA0040016D08860018
:101286008701403F4101DB00413FDC005B088400F1
:101296005C0885000008DA005A290130DB070030B7
:1012A600DC3D6D296C30DA006D29DA016D295A08AA
:1012B600D100D2015208003A03196229582951086F
:1012C6004C3A031950292A3A031955290A3A03199F
:1012D600502958295B0884005C0885001200663A8C
:1012E600031D76297729EE29A02940016E0886007C
:1012F6000130870001088400850104308107003F22
:101306004101D500013FD600023FD700033FD80078
:10131600B02940016E08860001308700010884006C
:10132600850104308107003F4101D500013FD60009
:10133600023FD700033FD800B0295A08D100D20196
:101346005208003A0319A829B02951084C3A031942
:101356008C29203A03197829B0295B08013ED1006F
:1013660000305C3DD20040016D08860087014101D6
:101376005108C03F5208C13FDD2958084001EB0023
:10138600410157084001EA00410156084001E900C1
:10139600410155084001E80041015B0884005C08F2
:1013A600850000084001EC00410159088031A12068
:1013B6008831122A5B0884005C0885000008D10089
:1013C600D2015208003A0319E929EE295108663A72
:1013D6000319C029EE2940016D08860087010130F6
:1013E600810741310318810A122A40016D088600DF
:1013F6008701403F4101D100413FD200510884009E
:10140600520885000008D300D4015308F20054089E
:10141600F3005908F4009431B8248831EE29080005
:10142600400141088039CB004135D200C01F1C2A3B
:101436001D2A1E2A521452080319222A232A332A45
:10144600520A031D272A282A302A0030C1000030FC
:10145600C0000030BF000030BE00C017C1013B2AEB
:101466000030C1000030C0000030BF000030BE00B8
:101476003D088039C2004208CB063D35D300BC1F6B
:10148600452A462A472A5314530803194B2A4C2A3D
:101496005C2A530A031D502A512A592A0030BD00DE
:1014A6000030BC000030BB000030BA00BC17BD01E4
:1014B600642A0030BD000030BC000030BB000030A4
:1014C600BA003D083C043B043A04031D6B2A6C2A0F
:1014D600852A0030C1000030C0000030BF00003057
:1014E600BE008030C0047F30C1044B08C2004208F1
:1014F600C1044108BD004008BC003F08BB003E08CF
:10150600BA00BC2B5208031D892A8A2A932A003066
:10151600BD000030BC000030BB000030BA00BC2B60
:101526005208C200C3014308C50053084202C40062
:10153600031CC50344087F3ECC000030453DCD006A
:101546004108CA004008C9003F08C8003E08C70055
:101556000030C1000030C0000030BF000030BE00C7
:101566000030D1000030D0000030CF000030CE0077
:10157600D301FB2A53080319C12AC22ADC2A0130E7
:10158600C735C80DC90DCA0D890BC32A0130BE3532
:10159600BF0DC00DC10D890BCA2AD11FD32AD42A6B
:1015A600D52A3E140130CE35CF0DD00DD10D890B85
:1015B600D62A3D084A02031DEA2A3C084902031DB1
:1015C600EA2A3B084802031DEA2A3A084702031C96
:1015D600ED2AEE2AF72A51173A08C7023B08C83BFC
:1015E6003C08C93B3D08CA3B0130C2004208D3074C
:1015F6001A305302031C002B012BBD2A4A0849044A
:10160600480447040319082B092B222B4E14222BBE
:101616000130BE35BF0DC00DC10D890B0C2BD11F7E
:10162600152B162B172B3E140130CE35CF0DD00DB2
:10163600D10D890B182BFF30CC07FF30CD3DC01FD5
:10164600252B262B0B2BD301D11F2A2B2B2B472BDC
:10165600FF304E05C200FF304F05C300FF30500576
:10166600C4007F305105C5004508440443044204C4
:1016760003193E2B3F2B422BD301D30A472B3E1C8B
:10168600452B462B472B3F2B530803194B2B4C2B33
:10169600742B0130BE070030BF3D0030C03D003026
:1016A600C13D411C572B582B742B3E08C2003F08E6
:1016B600C3004008C4004108C5000130C600C53754
:1016C600C40CC30CC20CC60B622B4508C1004408EF
:1016D600C0004308BF004208BE000130CC070030FE
:1016E600CD3D4D08803AC20080304202031D7D2B5D
:1016F600FF304C02031C802B812B8E2BFF304001C8
:10170600CC000030CD000030C1000030C0000030F9
:10171600BF000030BE0040014D08803AC200803054
:101726004202031D982B01304C0203189B2B9C2B65
:10173600A82B4001CC01CD010030C1000030C00013
:101746000030BF000030BE00CB0140014C08D20083
:10175600521CAE2BAF2BB12BC017B52B7F30C2005E
:101766004208C0055236C1004B08C2004208C104F7
:101776007C2A080040013D088039CA003D35CC006E
:10178600BC1FC62BC72BC82B4C144C080319CC2BDB
:10179600CD2BDD2B4C0A031DD12BD22BDA2B00309F
:1017A600BD000030BC000030BB000030BA00BC17E2
:1017B600BD01E52B0030BD000030BC000030BB0091
:1017C6000030BA0041088039CB004B084A0603199D
:1017D600ED2BEE2BEF2B4A174135CB00C01FF42B18
:1017E600F52BF62B4B144B080319FA2BFB2B0B2C62
:1017F6004B0A031DFF2B002C082C0030C1000030C3
:10180600C0000030BF000030BE00C017C101132C5D
:101816000030C1000030C0000030BF000030BE0004
:101826004C084B020318182C192C3F2C4A1F1C2C51
:101836001D2C212C8030C2004208CA064C08CD005F
:101846004B08CC004D08CB003A08CD003E08BA0044
:101856004D08BE003B08CD003F08BB004D08BF0049
:101866003C08CD004008BC004D08C0003D08CD0036
:101876004108BD004D08C100CD014B08C200C3019F
:101886004308C5004C084202C400031CC5034508B2
:10189600803AC60080304602031D532C1A3044029B
:1018A600031C562C572C892C40013D083C043B0454
:1018B6003A04031D5F2C612C0130622C0030CD00F0
:1018C6000030BD000030BC000030BB000030BA0064
:1018D6004B08CC00902C4D1C712C722C762C4D365E
:1018E6000138CD00782C0310CD0C3A1C7B2C7C2CB7
:1018F6007D2CCD170130C200BD37BC0CBB0CBA0C19
:10190600C20B7F2C0130C2004208CC0740014B08B5
:101916004C02031C8F2C902C6E2C4A1B932C942C5F
:10192600CA2C4C08031D982C992CA22C0030BD0003
:101936000030BC000030BB000030BA00C42D3E08A9
:10194600BA073F08BB3D4008BC3D4108BD3D3D1CB4
:10195600AD2CAE2C562D4D1CB12CB22CB62C4D36C2
:101966000138CD00B82C0310CD0C3A1CBB2CBC2C76
:10197600BD2CCD170130C200BD37BC0CBB0CBA0C58
:10198600C20BBF2C0130C2004208CC07562D3D08C1
:10199600803AC2004108803A4202031DDC2C40080E
:1019A6003C02031DDC2C3F083B02031DDC2C3E08D9
:1019B6003A020318DF2CE02C182DFF30C200FF304E
:1019C600C300FF30C400FF30C5003A083E02C6001F
:1019D6003B083F3BC7003C08403BC8003D08413B35
:1019E600C9004608C2074708C33D4808C43D490820
:1019F600C53D4508BD004408BC004308BB0042087D
:101A0600BA008030C2004208CA06CD09CD0A4D0888
:101A1600031D0E2D0F2D202D0130BA070030BB3DC2
:101A26000030BC3D0030BD3D202D3E08BA023F08C7
:101A3600BB3B4008BC3B4108BD3B3D083C043B0466
:101A46003A04031D272D282D522D4D08031D2C2D3C
:101A56002D2D522D0030BD000030BC000030BB00E3
:101A66000030BA00C42D0130BA35BB0DBC0DBD0D1A
:101A7600890B372DCD1F402D412D422D3A144D1C7B
:101A8600452D462D492D0314CD0D4B2D0310CD0D9F
:101A96004C0803194F2D502D522D0130CC02BC1F7E
:101AA600552D562D362DCB01CD1F5A2D5B2D692D6B
:101AB6004D087F390319602D612D642DCB01CB0AAA
:101AC600692D3A1C672D682D692D612D4B08031968
:101AD6006D2D6E2D9B2D0130BA070030BB3D0030B9
:101AE600BC3D0030BD3D3D1C792D7A2D9B2D3A081D
:101AF600C2003B08C3003C08C4003D08C5000130D5
:101B0600C600C537C40CC30CC20CC60B842D4508D1
:101B1600BD004408BC004308BB004208BA004C0A9A
:101B26000319962D972D9B2D0130C2004208CC0734
:101B36004C0A03199F2DA02DA52D4C08031DA42D7D
:101B4600A52DB32D0030BD000030BC000030BB0019
:101B56000030BA004C08031DB12DB22DB32DCA01B9
:101B66004C1CB62DB72DB92DBC17BD2D7F30C2002C
:101B76004208BC054C36BD00CA1FC22DC32DC42D5C
:101B8600BD170800400123088039AD002335B30096
:101B9600A21FCE2DCF2DD02D331433080319D42DEB
:101BA600D52DE42D330A031DD92DDA2DE22D003073
:101BB600A3000030A2000030A1000030A000A21750
:101BC600EC2D0030A3000030A2000030A100003050
:101BD600A00027088039A8002808AD062735B200DE
:101BE600A61FF62DF72DF82D321432080319FC2DF9
:101BF600FD2D0C2E320A031D012E022E0A2E003058
:101C0600A7000030A6000030A5000030A400A617EB
:101C1600142E0030A7000030A6000030A5000030CA
:101C2600A40032080319182E192E1E2E3308031D80
:101C36001D2E1E2E272E0030A3000030A2000030DD
:101C4600A1000030A000FF2F2008F00026089231E6
:101C5600F1228D3171084001B9007008B8003808CA
:101C6600A800A901AA01AB012B08B1002A08B000FF
:101C76002908AF002808AE003908A800A901AA0162
:101C8600AB012B08B7002A08B6002908B5002808BA
:101C9600B4002108F00025089231F1228D31710837
:101CA6004001B9007008B8003808A800A901AA01C7
:101CB600AB012808AE072908AF3D2A08B03D2B081E
:101CC600B13D3908A800A901AA01AB012808B4074B
:101CD6002908B53D2A08B63D2B08B73D2208F00075
:101CE60024089231F1228D3171084001B900700843
:101CF600B8003808A800A901AA01AB012808AE0758
:101D06002908AF3D2A08B03D2B08B13D3908A80087
:101D1600A901AA01AB012808B4072908B53D2A087C
:101D2600B63D2B08B73D0830AE35AF0DB00DB10D41
:101D3600890B972E2108F00024089231F1228D316B
:101D460071084001B9007008B8003808AE073908B4
:101D5600AF3D0030B03DB13D2008F000250892317E
:101D6600F1228D3171084001B9007008B8003808B9
:101D7600AE073908AF3D0030B03DB13D0830AE3555
:101D8600AF0DB00DB10D890BC22E2008F00024084E
:101D96009231F1228D3171084001B9007008B80006
:101DA6003808AE073908AF3D0030B03DB13D2108D7
:101DB600F00026089231F1228D3171084001B900F8
:101DC6007008B8003808B4073908B53D0030B63D8C
:101DD600B73D2208F00025089231F1228D317108B5
:101DE6004001B9007008B8003808B4073908B53D95
:101DF6000030B63DB73D2208F00026089231F122A8
:101E06008D3171084001B9007008B8003808A80083
:101E16003908A900AA01AB010830A835A90DAA0DF9
:101E2600AB0D890B102F2808B4072908B53D2A08E1
:101E3600B63D2B08B73D2E08A8002F08A90030088C
:101E4600AA003108AB001830AB36AA0CA90CA80CB6
:101E5600890B272F2808B4072908B53D2A08B63D5F
:101E66002B08B73D0830AE35AF0DB00DB10D890B5F
:101E7600362F33083207A800A901A90D2808823E8B
:101E8600B800FF30293DB9005F2F0130B435B50DDC
:101E9600B60DB70D890B492FB11F522F532F542F53
:101EA60034140130AE35AF0DB00DB10D890B552F81
:101EB600FF30B807FF30B93DB61F622F632F482F9A
:101EC600B201B11F672F682F842FFF302E05A8009F
:101ED600FF302F05A900FF303005AA007F303105FD
:101EE600AB002B082A042904280403197B2F7C2F16
:101EF6007F2FB201B20A842F341C822F832F842FA6
:101F06007C2F32080319882F892FB12F0130B4078F
:101F16000030B53D0030B63D0030B73D371C942F3C
:101F2600952FB12F3408A8003508A9003608AA0055
:101F36003708AB000130AC00AB37AA0CA90CA80CD3
:101F4600AC0B9F2F2B08B7002A08B6002908B5004E
:101F56002808B4000130B8070030B93D3908803A86
:101F6600A80080302802031DBA2FFF303802031C58
:101F7600BD2FBE2FC82F7F304001B7008030B6007E
:101F86000030B5000030B400F32F40013908803A24
:101F9600A80080302802031DD22F01303802031812
:101FA600D52FD62FE12F00304001B7000030B60004
:101FB6000030B5000030B400AD01F32F4001380801
:101FC600B300FF30B405FF30B5057F30B6050030ED
:101FD600B705331CEF2FF02FF12FB6173336B700A6
:101FE6002D08A8002808B7043708A3003608A20061
:0A1FF6003508A1003408A00008001F
:1021F0004E018C124201B601B60A0800F1007108C6
:102200009131462190310800183050018C00373050
:102210008D000800640080010131890B0B29003416
:10222000440121084201D400440120084201D300A6
:102230000800440121084201D8004401200842015D
:10224000D7000800440121084201D60044012008BB
:102250004201D5000800603051018D008F019101CD
:102260000230930092010800440121084201D0008D
:10227000440120084201CF00080044012108420126
:10228000D200440120084201D1000800F0004E01B4
:102290000F1E4B294C294729700842019A0008005B
:1022A0004F0196019701980199019A019B019C01A8
:1022B0009D010800730872047104700403196129F8
:1022C000622964298030F306080092311522913189
:1022D0009131C72191318B170B176D2980318428DB
:1022E000F200720841019F0042019117111311146D
:1022F00011187B297C29782941011E08F1001D084D
:10230000F000080087304B019F0050309D009C0179
:102310004E018C12961600304401A0000030A1003E
:1023200091313421913182304B019E000800F2003E
:10233000A5297208860001308700010891314621E5
:1023400091310130F1007108F20772088600013006
:1023500087000108031DAD29AE2999290800400115
:102360009A101A119A11181242019E1CB829B92903
:10237000B42950010C1463004001031AC029C1297B
:10238000C32950010C104201B401B501080001300D
:102390004501900020308F0091010F308D008C019D
:1023A0004E0190109A1400304401A0000030A100AA
:1023B00091313D219131CF3045018E00080040011F
:1023C00098019A012830920094013F307E01CE009E
:1023D0003730B800B901CF01BA01D0013730BB00A6
:1023E0003F30D1003F30BC003F30D2000F30A4005E
:1023F000080041018C018D018E018F019201930132
:1024000098019A019F0142018C018D018E018F017B
:102410009001920193019401950103309600970178
:10242000043098008430910008009131502192319D
:102430009131DF21923191312B219231913104215F
:1024400092318731FB2792319131F92192319131CB
:10245000C721923191318221923193315C239231A3
:102460000800F7007108F5007008F4007708F6001E
:102470007608860001308700F60A7508F3007408B4
:10248000F200F40A0319F50A720884007308850043
:102490000008C03F8908031D4E2A4F2A382A080029
:1024A000F401F501701C552A562A5A2A7208F407BD
:1024B0007308F53D0130F235F30D890B5B2A0130CD
:1024C000F136F00C890B602A70087104031D692A2B
:1024D0006A2A522A7508F1007408F000080080305A
:1024E0004001D1065508BD005408BC005308BB008C
:1024F0005208BA005108C1005008C0004F08BF0080
:102500004E08BE008B31BD23923140013D08D10001
:102510003C08D0003B08CF003A08CE00080041013B
:10252000E0005E08E2005D08E100A22AE13040011F
:10253000ED0041015F084001EE0041016008883173
:10254000EE2092314101610884006208850012008A
:10255000031DAB2AAC2A962ADD01DE0108004201E8
:10256000B800E530B9003808BA00BC01BD01C301AC
:10257000C40141016408DE006308DD003930DF007A
:102580003A3092318F22923142013C0838074101A2
:10259000E900690886000130870081010800F31B0B
:1025A000E02A7308031DDF2A7208031DDF2A710861
:1025B000031DDF2A013070020318DF2AE02AF02A07
:1025C0007009F0007109F1007209F2007309F3005B
:1025D000F00A0319F10A0319F20A0319F30AF02A9F
:1025E0000800F800F401F5017008F200F301720828
:1025F000F6007308F700781CFE2AFF2A032B7608E2
:10260000F4077708F53D0130F635F70D890B042BFB
:102610000310F80C7808031D0E2B0F2BFB2A7508EE
:10262000F1007408F000080040019A101A119A1184
:10263000181241016D08F5006C08F400943126244D
:10264000933101304101EC070030ED3D6D08803AD7
:10265000F60080307602031D2F2B04306C02031C21
:10266000322B332B362B4101EC01ED0108004001E8
:10267000A300A101A2014D2B2008FB00FC017B0857
:10268000F2007C08F3007A08F4009431B824933106
:1026900001304001A1070030A23D21082307FB00C3
:1026A0007B088600013087000108A0002008031D78
:1026B0005A2B5B2B3C2B0800083042019F008030D6
:1026C0009D0024309E0067309B009C010030440137
:1026D000A0000030A1009131192193310030440154
:1026E000A0000030A100913122219331003044013B
:1026F000A0000030A1009131102193314201B701B7
:102700000800700871040319862B872BB02BF50184
:10271000F50A932B0130F035F10D890B8B2B01302D
:10272000F4007408F507F11F962B972B8A2B71087C
:102730007302031D9D2B70087202031CA02BA12B9A
:10274000A52B7008F2027108F33B0130F136F00C52
:10275000890BA62B0130F502031DAF2BB02B972B55
:102760007308F1007208F00008004001AB00A61BDE
:10277000BA2BBB2BC02B2608AA002508A900C22B08
:10278000A901AA01A701A801D42B2030F200003032
:10279000F30040012B08F4009431B8249331013048
:1027A0004001A7070030A83D2808803AFD002A080C
:1027B000803A7D02031DDE2B29082702031CE12B32
:1027C000E22BC52B40012B08FA0024089331372354
:1027D00093310800F501F601700871040319F12B1B
:1027E000F22B212CF701F70AFE2B0130F035F10D09
:1027F000890BF62B0130F4007408F707F11F012C48
:10280000022CF52B0130F535F60D890B032C7108E0
:102810007302031D0D2C70087202031C102C112C66
:10282000162C7008F2027108F33B75140130F13672
:10283000F00C890B172C0130F702031D202C212CE2
:10284000022C7608F1007508F0000800562C4001B3
:102850001A110330F0000030F100953170259431E9
:1028600040019A14692C40019A100230F0000030A7
:10287000F10095317025943140011816692C400102
:1028800018120130F0000030F100953170259431BC
:1028900040019A15692C40019A110030F000F100B6
:1028A00095317025943140011A15692C7508003A4C
:1028B00003195B2C692C7408003A0319272C013A80
:1028C0000319332C033A03193F2C013A03194B2CFB
:1028D000692C080000307005F80000307105F9001F
:1028E00080307205FA007F307305FB007B087A04A4
:1028F00079047804031D7D2C7E2C862C0030F30097
:102900000030F2000030F1000030F00000307405BB
:10291000F80000307505F90080307605FA007F3048
:102920007705FB007B087A0479047804031D992C51
:102930009A2CA22C0030F7000030F6000030F50091
:102940000030F40077087306031DB02C7608720679
:10295000031DB02C75087106031DB02C7408700699
:102960000319B32CB42CB62C0310B72C0314080095
:1029700074080319BC2CBD2CC22C7408031DC12C77
:10298000C22CC72C72089031FE2094310E2D740891
:10299000093E860001308700160001040319D12C7E
:1029A000D22CF22C7408093E860001308700403F8B
:1029B000F500413FF6007408023E860001308700B2
:1029C000403FF700413FF8007808803AF900760868
:1029D000803A7902031DEE2C750877020318F12C5A
:1029E000F22C0E2D74088600013087007408023E18
:1029F00084000130850000080107F5007508860095
:102A000001308700720881007408023E86000130A0
:102A100087000130810741310318810A0800400115
:102A2000A300A101A201230886008701403FF8000E
:102A3000413FF900780884007908850012002A3A9D
:102A4000031D232D242D572D2308860087010130D7
:102A5000810741310318810A76088600013087001A
:102A600001088400850102308107003FA100013F79
:102A7000A2006B2D2008F800F9012208F1002108BE
:102A8000F0000A30F2000030F3009231502295310C
:102A9000780870074001A1007908713DA200230861
:102AA000860087010130810741310318810A23081C
:102AB00086008701403FF800413FF9007808840014
:102AC000790885000008D03EA0000A302002031CCF
:102AD0006A2D6B2D3A2D2208F7002108F600080018
:102AE000AD2D40011811981018101A10DA2D400160
:102AF0001811981018101A14DA2D40011811981096
:102B000018141A10DA2D40011811981018141A14FC
:102B1000DA2D40011811981418101A10DA2D4001FE
:102B20001811981418101A14DA2D4001181198145D
:102B300018141A10DA2D40011811981418141A14C8
:102B4000DA2D40011815981018101A10DA2D4001CE
:102B50001815981018101A14DA2D7008283E8600DF
:102B6000013087000108F200F3017308003A0319ED
:102B7000BA2DDA2D7208003A0319712D013A0319A2
:102B8000772D033A03197D2D013A0319832D073A56
:102B90000319892D013A03198F2D033A0319952D35
:102BA000013A03199B2D0F3A0319A12D013A03197C
:102BB000A72DDA2D080003104001500D510DD7004C
:102BC0005708031DE42DE52DEE2D0030D100003017
:102BD000D0000030CF000030CE004B2E4E08D20087
:102BE0004F08D3005008D4005108D5001F30D53607
:102BF000D40CD30CD20C890BF72D5208D600D01769
:102C0000FF30CE05FF30CF05FF30D0050030D105B5
:102C10009630D702D71F0D2E0E2E262E5708803A3B
:102C2000973E0318142E152E162EE52D0130D136A1
:102C3000D00CCF0CCE0C890B172E0130D2005208CD
:102C4000D707031D242E252E162E3B2E203057028B
:102C5000031C2B2E2C2E362EE52D0130CE35CF0D1C
:102C6000D00DD10D890B2E2E0130D7025708031D30
:102C70003A2E3B2E2D2E560803193F2E402E4B2E5A
:102C8000CE09CF09D009D109CE0A0319CF0A0319F9
:102C9000D00A0319D10A0800420127084001A50003
:102CA000420126084001A400420125084001A3007A
:102CB000420124084001A2007308A5007208A40084
:102CC0007108A3007008A2002208F4002308F50090
:102CD0002408F6002508F7001730F736F60CF50C37
:102CE000F40C890B6D2EFF307405A00000307505C3
:102CF000A10020082104031D7E2E7F2EA02E220875
:102D0000F4002308F5002408F6002508F700013038
:102D1000F435F50DF60DF70D890B882E770876043E
:102D200075047404031D952E962E9B2E0230F00020
:102D30000030F100CA2E0330F0000030F100CA2E3E
:102D4000200A2104031DA52EA62EC62E2208F4005B
:102D50002308F5002408F6002508F7000930F435AB
:102D6000F50DF60DF70D890BAF2E77087604750477
:102D700074040319BC2EBE2E0130BF2E0030F800A3
:102D8000F9017808F0007908F100CA2E0430F0004B
:102D90000030F1000800003040013A05C200003068
:102DA0003B05C30080303C05C4007F303D05C500B5
:102DB0004508440443044204031DDF2EE02EE82EA0
:102DC0000030BD000030BC000030BB000030BA0055
:102DD00000303E05C20000303F05C3008030400592
:102DE000C4007F304105C500450844044304420443
:102DF000031DFB2EFC2E042F0030C1000030C0004C
:102E00000030BF000030BE00BD1F072F082F202F4D
:102E10000030C2000030C3000030C4008030C50064
:102E20003A08C2023B08C33B3C08C43B3D08C53BD3
:102E30004508BD004408BC004308BB004208BA0076
:102E4000C11F232F242F3C2F0030C2000030C300AD
:102E50000030C4008030C5003E08C2023F08C33BBA
:102E60004008C43B4108C53B4508C1004408C000B8
:102E70004308BF004208BE008030BD068030C10656
:102E800041083D02031D4E2F40083C02031D4E2FFA
:102E90003F083B02031D4E2F3E083A020318512FF4
:102EA000522F542F0310552F03140800F8007808F0
:102EB00003195B2F5C2F702FF31F5F2F602F702F74
:102EC0007009FA007109FB007209FC007309FD002A
:102ED000FA0A0319FB0A0319FC0A0319FD0A782FE1
:102EE0007308FD007208FC007108FB007008FA000E
:102EF0007308720471047004031D7F2F802F892FC3
:102F00000030F3000030F2000030F1000030F0003B
:102F1000FF2F9630F900972F0130F4007408F9075D
:102F20000130FD36FC0CFB0CFA0C890B912FFE30A6
:102F30007D05031D9C2F9D2F8C2FB12F0130F40098
:102F40007408F9070130FA070030FB3D0030FC3D02
:102F50000030FD3D0130FD36FC0CFB0CFA0C890BFA
:102F6000AB2FFF307D05031DB62FB72F9E2FC12F2E
:102F70000130F9020130FA35FB0DFC0DFD0D890B16
:102F8000BB2FFC1BC42FC52FCB2F02307902031897
:102F9000CA2FCB2FB82F7918CE2FCF2FD72FFF3096
:102FA000FA05FF30FB057F30FC05FF30FD050310FF
:102FB000F90C7908F400F501F601F7011830F43541
:102FC000F50DF60DF70D890BDF2F7408FA0475085F
:102FD000FB047608FC047708FD0478080319F12F38
:102FE000F22FF72FF31FF52FF62FF72FFD177D0880
:102FF000F3007C08F2007B08F1007A08F00008007A
:1030000025342E34333466340A34003469346E3453
:0C301000663400346E3461346E340034D9
:020000040001F9
:0A000E00EC3FFF3FAC3FFF3FFF3F18
:00000001FF
